:100000000C94E2060C9429070C9429070C942907F8
:100010000C9429070C9429070C9429070C942907A0
:100020000C9429070C9429070C94CC270C949F2836
:100030000C94A31E0C9429070C9429070C942907EF
:100040000C9429070C9429070C9429070C94290770
:100050000C9429070C940B1F0C9429070C94290766
:100060000C9429070C9429070C9429070C94290750
:100070000C9429070C9429070C9429070C94290740
:100080000C9429070C9429070C9429070C94290730
:100090000C9429070C9429070C9429070C94290720
:1000A0000C9429070C9429070C94290729001E0099
:1000B0001F0020002100220023002400250026002C
:1000C00027002D002E00310035002B0014001A00EF
:1000D0000800150017001C0018000C001200130087
:1000E0002F0030002A000000E00004001600070086
:1000F00009000A000B000D000E000F003300340051
:10010000000028000000E10000001D001B000600A8
:100110001900050011001000360037003800E50016
:10012000E50001510000E200E300000000000000D3
:100130002C000000000000000000E700E6000000C6
:100140000000A5003A003B003C003D003E003F009F
:1001500040004100420043004400450049004C007B
:10016000390034703570367037703870397000006F
:10017000460047004800520000004C00000000000C
:10018000AA00A900A80000000000250238004A00CB
:100190004B0050004F000000000000000000000075
:1001A0003A703B700000000000002E022D004D0050
:1001B0004E005100000000000000000000000000A0
:1001C0000000000000002C00000000000000000003
:1001D000AD007600000000000100010001000100F8
:1001E0000100010001000100010001000100010007
:1001F00001000100010001000100010001000100F7
:1002000001000100010001000100010001000100E6
:1002100001000000010001000100010001000100D7
:1002200001000100010001000100010001000100C6
:1002300000000100010001000100010001000100B7
:1002400001000100010001000100010001000100A6
:10025000010001000100000000000000010000009A
:100260000000000001000100010001000000010089
:100270000100010001000100010001000100010076
:100280000100010001000100010001000100010066
:100290000100010001000100010001000100010056
:1002A0000100010001000100000001000100010047
:1002B0000100010001000100010001000100010036
:1002C0000100010001000000010001000100010027
:1002D0000100010001000100010001000100010016
:1002E0000100010001000100010001000000000008
:1002F00000000100000000000000010001000100FA
:1003000001000000010001000100010001000100E6
:1003100001000100010001000100010001000100D5
:1003200001000100010001000100010001000100C5
:1003300001000100010001000100010001000000B6
:1003400001000100010001000100010001000100A5
:100350000100010001000100010001000000010096
:100360000100010001000100010001000100010085
:100370000100010001000100010001000100010075
:10038000010000000000000001000000000000006B
:100390000100010001000100000001000100010056
:1003A0000100010001000100010001000100010045
:1003B0000100010001000100010001000100010035
:1003C0000100010001000100010001000100010025
:1003D0000100010000000100010001000100010016
:1003E0000100010001000100010001000100010005
:1003F00001000000010001000100010001000100F6
:1004000001000100010001000100010001000100E4
:1004100001000100010001000000000000000100D7
:1004200000000000000001000100010001000000C8
:1004300001000100010001000100010001000100B4
:1004400001000100010001000100010001000100A4
:100450000100010001000100010001000100010094
:100460000100010001000100010000000100010085
:100470000100010001000100010001000100010074
:100480000100010001000100000001000100010065
:100490000100010001000100010001000100010054
:1004A0000100010001000100010001000100000045
:1004B0000000000001000000000000000100010039
:1004C0000100010000000100010001000100010025
:1004D0000100010001000100010001000100010014
:1004E0000100010001000100010001000100010004
:1004F00001000100010001000100010001000100F4
:1005000000000100010001000100010001000100E4
:1005100001000100010001000100010001000000D4
:1005200001000100010001000100010001000100C3
:1005300001000100010001000100010001000100B3
:1005400001000100000000000000010000000000A8
:100550000000010001000100010000000100010095
:100560000100010001000100010001000100010083
:100570000100010001000100010001000100010073
:100580000100010001000100010001000100010063
:100590000100010001000000010001000100010054
:1005A0000100010001000100010001000100010043
:1005B0000100010000000100010001000100010034
:1005C0000100010001000100010001000100010023
:1005D0000100010001000100010000000000000016
:1005E0000100000000000000010001000100010006
:1005F00000000100010001000100010001000100F4
:1006000001000100010001000100010001000100E2
:1006100001000100010001000100010001000100D2
:1006200001000100010001000100010000000100C3
:1006300001000100010001000100010001000100B2
:1006400001000100010001000100000001000100A3
:100650000100010001000100010001000100010092
:100660000100010001000100010001000100010082
:100670000000000000000100000000000000010078
:100680000100010001000000010001000100010063
:100690000100010001000100010001000100010052
:1006A0000100010001000100010001000100010042
:1006B0000100010001000100010001000100010032
:1006C0000100000001000100010001000100010023
:1006D0000100010001000100010001000100010012
:1006E0000000010001000100010001000100010003
:1006F00001000100010001000100010001000100F2
:1007000001000100010000000000000001000000E5
:1007100000000000010001000100010000000100D4
:1007200001000100010001000100010001000100C1
:1007300001000100010001000100010001000100B1
:1007400001000100010001000100010001000100A1
:100750000100010001000100000001000100010092
:100760000100010001000100010001000100010081
:100770000100010001000000010001000100010072
:100780000100010001000100010001000100010061
:100790000100010001000100010001000000000053
:1007A0000000010000000000000001000100010045
:1007B0000100000001000100010001000100010032
:1007C0000100010001000100010001000100010021
:1007D0000100010001000100010001000100010011
:1007E0000100010001000100010001000100000002
:1007F00001000100010001000100010001000100F1
:1008000001000100010001000100010000000100E1
:1008100001000100010001000100010001000100D0
:1008200001000100010001000100010001000100C0
:1008300001000000000000000100000000000000B6
:1008400001000100010001000000010001000100A1
:100850000100010001000100010001000100010090
:100860000100010001000100010001000100010080
:100870000100010001000100010001000100010070
:100880000100010000000100010001000100010061
:100890000100010001000100010001000100010050
:1008A0000100000001000100010001000100010041
:1008B0000100010001000100010001000100010030
:1008C0000100010001000100000000000000010023
:1008D0000000000000000100010001000100000014
:1008E0000100010001000100010001000100010000
:1008F00001000100010001000100010001000100F0
:1009000001000100010001000100010001000100DF
:1009100001000100010001000100000001000100D0
:1009200001000100010001000100010001000100BF
:1009300001000100010001000000010001000100B0
:10094000010001000100010001000100010001009F
:100950000100010001000100010001000100000090
:100960000000000001000000000000000100010084
:100970000100010000000100010001000100010070
:10098000010001000100010001000100010001005F
:10099000010001000100010001000100010001004F
:1009A000010001000100010001000100010001003F
:1009B0000000010001000100010001000100010030
:1009C0000100010001000100010001000100000020
:1009D000010001000100010001000100010001000F
:1009E00001000100010001000100010001000100FF
:1009F00001000100000000000000010000000000F4
:100A000000000100010001000100000064321464D4
:100A10003214783C1E1E140A05000000000101017A
:100A20000202030405050607090A0B0C0E0F11123A
:100A3000141517191B1D1F212325282A2C2F31348B
:100A400036393B3E414346494C4F5255585A5D61F9
:100A500064676A6D707376797C7F8386898C8F92E8
:100A600095989B9EA2A5A7AAADB0B3B6B9BCBEC1CE
:100A7000C4C6C9CBCED0D3D5D7DADCDEE0E2E4E61B
:100A8000E8EAEBEDEEF0F1F3F4F5F6F8F9FAFAFB3B
:100A9000FCFDFDFEFEFEFFFFFFFFFFFFFFFEFEFE73
:100AA000FDFDFCFBFAFAF9F8F6F5F4F3F1F0EEEDE2
:100AB000EBEAE8E6E4E2E0DEDCDAD7D5D3D0CECB71
:100AC000C9C6C4C1BEBCB9B6B3B0ADAAA7A5A29EE3
:100AD0009B9895928F8C898683807C797673706DD4
:100AE0006A6764615D5A5855524F4C494643413ECE
:100AF0003B393634312F2C2A282523211F1D1B1961
:100B000017151412110F0E0C0B0A09070605050420
:100B100003020201010100000000000000000101C9
:100B200001010101010101020202020202020202AC
:100B3000030303030303030304040404040405057B
:100B4000050505060606060607070707080808083C
:100B50000909090A0A0A0A0B0B0B0C0C0C0D0D0DE6
:100B60000E0E0F0F0F101011111112121313141477
:100B7000151516161717181819191A1A1B1C1C1DEB
:100B80001D1E1F1F20202122222324252526272742
:100B900028292A2B2B2C2D2E2F2F30313233343570
:100BA00036363738393A3B3C3D3E3F40414243447C
:100BB000464748494A4B4C4D4F5051525355565752
:100BC000585A5B5C5E5F606263646667696A6C6DFD
:100BD0006E707173747678797B7C7E808183848675
:100BE000888A8B8D8F91929496989A9B9D9FA1A3B2
:100BF000A5A7A9ABADAFB1B3B5B7B9BBBDBFC1C4B4
:100C0000C6C8CACCCFD1D3D6D8DADCDFE1E4E6E877
:100C1000EBEDF0F2F5F7FAFCFF12036B00650079DB
:100C20000062006F00610072006400000016037132
:100C3000006D006B006200750069006C0064006567
:100C400000720000000403090409026D00040100A1
:100C5000A0FA0904000001030101000921110100AB
:100C6000012240000705810308000A090401000170
:100C700003010200092111010001224D0007058234
:100C80000308000A09040200010300000009211101
:100C90000100012236000705830308000A09040346
:100CA00000010300000009211101000122390007A1
:100CB0000584032000011201100100000008EDFE70
:100CC000606001000102000105010906A10105079C
:100CD00019E029E71500250195087501810205082D
:100CE0001901290595057501910295017503910179
:100CF0000507190029F71500250195F875018102EE
:100D0000C005010980A10185021601002603001A11
:100D100081002A8300751095018100C0050C09012E
:100D2000A1018503160100269C021A01002A9C02DB
:100D3000751095018100C005010902A1010901A1F9
:100D40000005091901290515002501950575018181
:100D500002950175038101050109300931158125CD
:100D60007F95027508810609381581257F950175E3
:100D7000088106050C0A38021581257F9501750842
:100D80008106C0C005010906A101050719E029E790
:100D900015002501950875018102950175088101ED
:100DA000050819012905950575019102950175033D
:100DB00091010507190029FF150026FF009506750A
:100DC000088100C011241FBECFEFDAE0DEBFCDBF27
:100DD00004B603FE27C080918C0290918D02A091F1
:100DE0008E02B0918F028730904BA740B04BD1F468
:100DF00010928C0210928D0210928E0210928F022D
:100E000014BE84B7877F84BF0FB6F894A8958091ED
:100E10006000886180936000109260000FBEE0E087
:100E2000F8E3099511E0A0E0B1E0EAEEF7E502C0D1
:100E300005900D92AC33B107D9F722E0ACE3B1E0F5
:100E400001C01D92AC38B207E1F70E9419250C943D
:100E5000F32B0C94000090E080E00895089508952D
:100E600081E00895089581E008950C9430070E9470
:100E700002172FEF84E39CE0215080409040E1F77F
:100E800000C000000C94301FFF920F931F93CF936C
:100E9000DF938C01FC01C081D18180918D01811192
:100EA00048C08281882309F43FC0CE010E94691C9A
:100EB000F82E682FCE010E940F1CBE018F2D0E94BC
:100EC0001E09EC01B8010E943507882309F478C097
:100ED000B801CE010E944E0B882309F471C0C633BD
:100EE000F0E7DF0709F484C0C0F5C53190E7D90702
:100EF00028F5C230E0E7DE0708F099C0C115F0E739
:100F0000DF0709F458C0C130D04709F460C081E060
:100F100080933E0180933F01C801DF91CF911F91E3
:100F20000F91FF900C943307CE010E943E1CF82EC7
:100F3000C4CFCE010E94691CBE01C1CFC43390E76B
:100F4000D90709F44EC0C533D04709F7F8018281AB
:100F50008823B1F10E94690F33C0CA33F0E7DF077D
:100F600009F457C070F4F8018281C833F0E7DF0755
:100F700009F44AC008F443C0882311F10E94AD0E61
:100F80001FC0CC33E0E7DE0709F4D5C008F448C041
:100F9000CD33D04709F0BBCFF8018281882309F413
:100FA000F1C010923F010E94D51E90933D018093A5
:100FB0003C0180E2CDC0F801828181110E94370797
:100FC00080E0DF91CF911F910F91FF900895F8017C
:100FD00082818823A9F38091250281608093250274
:100FE000EFCFF8018281882359F30E94730FE8CF75
:100FF000F8018281882321F30E945E0EE1CF8823CD
:10100000F9F20E94760EDCCF8823D1F20E94950E71
:10101000D7CFF8018281882399F20E94C50ED0CFE4
:10102000F8018281882361F20E94DD0EC9CFF801A8
:101030008281882309F470CF0E94261E811102C08C
:101040000E94001E0E94431E90E090937D028093B8
:101050007C02FE01E350F04780917C028160E23126
:10106000F105C8F4EA5CF74F0C94A52B4808540826
:1010700058085C086008640868086C087008740800
:1010800078087C088008840888088C0890089408F0
:1010900080917C02826080937C0280917C020E941D
:1010A000471E0E9402178CCF80917C028460F3CF90
:1010B00080917C028860EFCF80917C028061EBCFD1
:1010C00080917C028062E7CF80917C028064E3CFD4
:1010D00080917C028068DFCF80917C028460EACFBF
:1010E00080917C028E7FD7CF80917C028D7FD3CF81
:1010F00080917C028B7FCFCF80917C02877FCBCF8A
:1011000080917C028F7EC7CF80917C028F7DC3CF80
:1011100080917C028F7BBFCF80917C028F77BBCF89
:1011200080917C028B7FEACF90917C02892F97FB84
:1011300087F98058B0CFF8018281882361F010923E
:101140003E010E94D51E90933D0180933C0182E0B8
:101150000E946C1435CF80913E0181110FC08091A7
:101160003C0190913D010E94E11E883C910530F4C4
:1011700086E20E94411386E20E941D1482E00E94D2
:1011800073141ECF80913F0181110FC080913C01EB
:1011900090913D010E94E11E883C910530F487E268
:1011A0000E94411387E20E941D1480E2E8CF0C9454
:1011B0009F0B279A2F988FEF9FEF90938700809334
:1011C00086008AE08093800089E1809381000C94FE
:1011D000CE220E94D9080C949D0B282F2F98809125
:1011E0008000211108C0877F8093800010928D00BD
:1011F00010928C000895886080938000233039F429
:101200008FEF9FEF90938D0080938C00089583E083
:1012100090E0821B9109880F991F2FEF3FEF02C0CA
:10122000369527958A95E2F730938D0020938C00B0
:1012300008950C9432070C9419090895972F70E0C3
:101240002FE0929F600D711D1124FB019BE4899F8B
:10125000E00DF11D1124EE0FFF1FE455FF4F8591A6
:1012600094910895FC01EE0FFF1FE45FF54F859107
:10127000949108950E941E090E94CD0A811520E5CF
:10128000920708F040C0811530E4930708F0FAC0D7
:10129000883E910518F5803E910508F07DC1883A99
:1012A000910580F4853A910508F087C08130910559
:1012B00009F472C120F08430910508F06DC190E00E
:1012C00080E008958D3B910508F482C0803C910533
:1012D000B0F3805C91090E9432090895811540E2C3
:1012E000940750F4811521E0920708F055C1803F22
:1012F000910528F390650895811530E3930708F070
:10130000BEC09F70E8CF811545E5940760F5811553
:1013100024E5920708F0E5C0811532E5930750F403
:10132000811541E5940708F4B0C0982F8827816F94
:10133000906A0895282F26952695AC01437055276D
:101340008115934508F0BEC081E090E002C0880F8F
:10135000991F4A95E2F740E2249F90011124822BC5
:10136000932B9C680895803340E7940798F480326B
:1013700020E7920708F0BFC0811536E5930708F40F
:10138000B5C09C0130569F702115304108F097CFB1
:1013900090620895813320E7920709F4B3C008F4FE
:1013A000AEC0823340E7940709F4AFC0833390475F
:1013B00009F085CF80E093ED0895853A910509F411
:1013C000A7C0863A910509F0A6C082E890E4089586
:1013D000883A910509F4A2C0893A910509F4A1C09F
:1013E0008A3A910509F4A0C08B3A910509F49FC08F
:1013F0008C3A910509F49EC08B3B910509F49DC080
:101400008C3B910509F49CC08D3A910509F49BC071
:10141000803B910509F49AC08E3A910509F499C070
:101420008F3A910509F498C0813B910509F497C062
:10143000823B910509F496C0833B910509F495C060
:10144000843B910509F494C0853B910509F493C050
:10145000863B910509F492C0873B910509F491C040
:10146000883B910509F490C0893B910509F48FC030
:101470008A3B910509F48EC080E094E40895992791
:10148000906C08959F70906A08959C0154E0369581
:1014900027955A95E1F7922F9370482F437021E0DA
:1014A00030E002C0220F331F4A95E2F73C68392B27
:1014B00086958695837040E2849FC0011124822B1B
:1014C000932B089581E090E002C0880F991F4A9500
:1014D000E2F740E2249F90011124822B932B9A681B
:1014E0000895982F8827846F906A0895982F8827E9
:1014F00088279F714DCF80529047946D089580E06A
:1015000091ED089580E090ED089580E092ED0895CA
:1015100081E890E4089583E890E4089582EE94E4ED
:10152000089589EE94E408958AEE94E4089585EB95
:1015300094E4089586EB94E4089583EB94E408958D
:1015400084EB94E4089587EB94E408958CEC94E4A0
:1015500008958DEC94E4089583E895E408958AE86D
:1015600095E4089582E995E4089584E995E4089561
:1015700081E296E4089583E296E4089584E296E495
:10158000089585E296E4089586E296E4089587E258
:1015900096E408958AE296E408958238910549F127
:1015A000B0F48133910509F45CC048F489329105A7
:1015B00009F452C08A32910509F458C00895853360
:1015C000910509F444C08933910599F00895833E4B
:1015D000910531F138F4803E910591F0823E9105FC
:1015E000B1F00895863E910511F1873E910541F1D4
:1015F000089520917C022370C9F080EE90E0089558
:1016000020917C0220FF12C089E390E00895209190
:101610007C0222FF0BC024FF2EC090E080E00895E2
:1016200020917C0222FD2AC024FDF7CF089520914D
:101630007C0223FFFBCF24FDF0CF87EE90E00895DE
:1016400020917C0223FFF0CF86EE90E00895209158
:101650007C0225FD16C0089520917C0225FD14C052
:10166000089520917C0226FD12C0089520917C02ED
:1016700026FD10C0089583EE90E0089582EE90E07C
:10168000089589E290E0089585E390E008958AE264
:1016900090E0089581E390E0C9CF08950F931F93E0
:1016A000CF938C01FB018281811106C0C1E08C2F98
:1016B000CF911F910F910895C0914D01C11125C087
:1016C0000531104799F70E944D0B81E080934D0141
:1016D0000E94D51E90934C0180934B0110924001C3
:1016E0001092420110924101109244011092430164
:1016F0001092460110924501109248011092470144
:1017000010924A0110924901D2CF80914B019091E1
:101710004C010E94E11E883C910540F680914001F9
:10172000E82FF0E0EE0FFF1FEF5BFE4F1183008309
:101730008F5F80934001C0E0BACF0C942E070C94C9
:101740002F07CF93DF9385B7806885BF85B7806803
:1017500085BFA3E2B1E048E251E0C1E0D0E08D9165
:10176000E82FE295EF70F0E061A18F709E0101C05B
:10177000220F8A95EAF7922F9095962391A382A142
:10178000822B82A34A175B0751F7A4E1B1E061E025
:1017900070E08D91E82FE295EF70F0E041A18F703D
:1017A0009B0101C0220F8A95EAF7922F909594230E
:1017B00091A382A1822B82A381E0A332B80749F7CB
:1017C000109259011092580110924F0110924E013F
:1017D00010925B0110925A01109251011092500127
:1017E00010925D0110925C0110925301109252010F
:1017F00010925F0110925E011092550110925401F7
:1018000010926101109260011092570110925601DE
:10181000DF91CF910C94E9086F927F929F92AF92E3
:10182000BF92CF92DF92EF92FF920F931F93CF93CD
:10183000DF93CEE4D1E003E211E0EE24E394F12C57
:10184000BB24B394C880D98019821882D8018D91A5
:101850008D01E82FE295EF70F0E091A18F70970174
:1018600001C0220F8A95EAF7892F822B81A382A1DA
:10187000A22EA0948A2182A3B0EABA95F1F784E15E
:10188000682E81E0782E90E080E0D3017D913D01CB
:10189000472F42954F7050E0DA0190969C90488116
:1018A00059817F70D70102C0AA0FBB1F7A95E2F75A
:1018B000BD01692109F06FC0B701082E02C0660F93
:1018C000771F0A94E2F7462B572B598348830196DA
:1018D0008F309105D1F681A18A2181A382A1282B85
:1018E00022A388819981C816D90641F0B09262017D
:1018F0000E94D51E90936401809363012296B1E00B
:1019000008321B0709F09ECF80916201882391F174
:1019100080916301909164010E94E11E069750F14D
:1019200080914E0190914F019093590180935801FD
:10193000809150019091510190935B0180935A01E5
:10194000809152019091530190935D0180935C01CD
:10195000809154019091550190935F0180935E01B5
:10196000809156019091570190936101809360019D
:10197000109262010E94D70881E0DF91CF911F9100
:101980000F91FF90EF90DF90CF90BF90AF909F901E
:101990007F906F90089570E060E095CFE82FF0E0C1
:1019A000EE0FFF1FE85AFE4F808191810895089540
:1019B00031B3242F2095232331B3432B3FB7F89421
:1019C000FC01680F791FE617F70711F43FBF089570
:1019D000819198E041BB000000C087FF21BB880FC8
:1019E000000000C000C000C021BB00C09A9591F764
:1019F000EACF20B3242B20BB9B01220F331F620FA1
:101A0000731F0E94D80C87EC90E00197F1F700C09B
:101A10000000089540E40C94F90CCF92DF92EF920D
:101A2000FF920F931F93CF93DF93E901662309F48D
:101A300066C0E42EF12CEFEFF0E0E61BF109EE9D1D
:101A40008001EF9D100DFE9D100D1124212FE12F1F
:101A5000FF27EE1AFF0A5CE3C52ED12CB6010E94C7
:101A60007D2BFB01BC01E69EC001E79E900DF69E1A
:101A7000900D1124B6010E947D2BE230F10589F111
:101A800068F4812F262F210F309781F0242F461BD9
:101A9000319761F080E020E040E008C0E430F105DB
:101AA00051F128F1842F861B3597A1F7E42FF0E040
:101AB000E75EF44F4491E22FF0E0E75EF44F94913B
:101AC000E82FF0E0E75EF44FE49149839883EA83DE
:101AD000DF91CF911F910F91FF90EF90DF90CF900A
:101AE0000895862F810FE42F412F2E2FDFCFE42F73
:101AF000E61B842FF9CF842F462F410FD7CF842F99
:101B0000242FD4CF88E090E00C94B32BAB01BC0120
:101B100088E090E00C94D12BE2E5F2E083E0808352
:101B2000109253028FEF82838383609152027091EF
:101B3000530280915402909155020C94860D80912D
:101B40005202EAE5F2E080FF06C06AE070E08AE552
:101B500092E00C940A0D118210821282339682E078
:101B6000E837F807C1F7F1CFEAE5F2E08183608357
:101B70004283339692E0E837F907C1F70C949F0D42
:101B8000EF92FF920F931F93CF93DF9300D01F929A
:101B9000CDB7DEB7182FE92EF62E042F8091520212
:101BA00090915302A0915402B09155028093560235
:101BB00090935702A0935802B09359028091520219
:101BC00080FF1FC09E012F5F3F4F812F9E2D0E94DF
:101BD0000D0D8091560210FB87F9809356021695E1
:101BE000809157028078812BE0FA87F98093570221
:101BF000F0925802009359024B8169818A810E94B8
:101C0000B40D0F900F900F90DF91CF911F910F9116
:101C1000FF90EF9008950F931F93CF93DF93EC0104
:101C2000062F142F9091520290FF43C0892F8E7778
:101C3000823021F5CE010E94C00D80915202C0FB7E
:101C400087F980935202C695809153028078C82B01
:101C5000D0FBC7F9C093530200935402109355026E
:101C600060915202709153028091540290915502FA
:101C7000DF91CF911F910F910C94860D892F86953E
:101C80008F732EE3280F2F73243018F41091550210
:101C9000D4CF865C8F73893080F6991F9927991F5E
:101CA000D0915302CD2FCC0FC92BD7FBDD27D0F914
:101CB000C4CFDF91CF911F910F910895E2E5F2E03B
:101CC0002081221F2227221F30915302432F440FCD
:101CD000842F822B37FB992790F9089668E671E0EC
:101CE0000E94912B438162810C940B0E2091520231
:101CF000221F2227221F30915302432F440F842F8B
:101D0000822B37FB992790F98830910540F4805A4F
:101D10009E4F40915502609154020C940B0E08970F
:101D200068E671E00E94912BF4CF60915402683F05
:101D300090F4685F80915202881F8827881F9091D5
:101D40005302292F220F97FB992790F940915502B2
:101D5000822B0C940B0E6FEFEDCF60915402683024
:101D600090F0685080915202881F8827881F9091B8
:101D70005302292F220F97FB992790F94091550282
:101D8000822B0C940B0E60E0EDCF40915502483F42
:101D900090F4485F80915202881F8827881F909195
:101DA0005302292F220F97FB992790F96091540233
:101DB000822B0C940B0E4FEFEDCF40915502483023
:101DC00090F0485080915202881F8827881F909178
:101DD0005302292F220F97FB992790F96091540203
:101DE000822B0C940B0E40E0EDCF9091520290FFAD
:101DF0003BC09178811126C092609093520260910D
:101E000052027091530280915402909155020E94A7
:101E1000860D80915202982F9E779230D9F41092BD
:101E20007A01881F8827881F90915302292F220F3B
:101E300097FB992790F94091550260915402822BAB
:101E40000C940B0E893110F09063D7CF8F73880FED
:101E5000982BD3CF982F9695925C9F73963108F765
:101E600091E090937A01DDCF089580912502816001
:101E70008093250281E080937B010E94261E8111C0
:101E800004C00E94001E0E948C0D0E94820D60936F
:101E900052027093530280935402909355026E77CE
:101EA00061F40E948C0D0E94820D60935202709327
:101EB0005302809354029093550281E080937A01FB
:101EC0008091520280FF04C086958F730C94F50EAA
:101ED00008958091520286958F738F5F893108F043
:101EE00081E00C94F50E90915202892F8E7F90FF25
:101EF00081608093520260915202709153028091EE
:101F00005402909155020E94860D8091520280FFEA
:101F100004C086958F730C94F50E10927A012FEF02
:101F200080E792E0215080409040E1F700C000003F
:101F30000C949F0DCF93C82F8091780190917901D7
:101F40000E94E11EEC2FF0E0EB5EF54FE491E81704
:101F5000190609F010F50E94D51E9093790180931F
:101F60007801E0917701F0E0E75EF54F44918091D0
:101F70005202881F8827881F90915302292F220F11
:101F800097FB992790F960915402822B0E94C00D13
:101F9000809177018F5F80937701CF910895CF93E0
:101FA000C82F80917501909176010E94E11EEC2F5F
:101FB000F0E0EE5EF54FE491E817190609F0E8F459
:101FC0000E94D51E90937601809375014091550231
:101FD0006091540280917301909174010E94C00D30
:101FE0008091730190917401019668E671E00E94FE
:101FF0007D2B9093740180937301CF910895CF92BC
:10200000DF92FF920F931F93CF93DF93F82E80916F
:102010007101909172010E94E11EEF2DE695F0E0B2
:10202000EE5EF54FE491E817190609F0A8F50E9455
:10203000D51E90937201809371010AE512E0D0E001
:10204000C0E088E6C82EDD24D39480916F01909182
:1020500070018C0F9D1FB6010E947D2B980140914D
:102060005502609154020E940D0DA4960D5F1F4F02
:10207000C83681E0D80749F70E949F0D80916F0113
:1020800090917001F0FE10C00196BE010E947D2B60
:102090009093700180936F01DF91CF911F910F9109
:1020A000FF90DF90CF9008950197F2CFAF92BF924B
:1020B000CF92DF92EF92FF920F931F93CF93DF9314
:1020C000C82FFF24FA9480FD02C0FF24F39480916E
:1020D0006D0190916E010E94E11EC695EC2FF0E01B
:1020E000E15FF54FE491E817190611F008F053C0CD
:1020F0000E94D51E90936E0180936D01CAE5D2E0D7
:1021000010E000E097E0C92ED12C198218821A82C3
:1021100087E0A82EB12CE12C80916C018E0D87FDFB
:10212000865F082E000C990B08171907E9F4209117
:1021300055022A9DC0012B9D900D1124B6010E94CD
:10214000912B462F80915202881F8827881F9091DB
:102150005302592F550F97FB992790F99E016091D3
:102160005402852B0E940D0DEF0C81E0A81AB108D6
:1021700099F60F5F1F4F23960A30110531F60E9422
:102180009F0D80916C0191E0F91212C081110EC077
:1021900089E080936C01DF91CF911F910F91FF90A7
:1021A000EF90DF90CF90BF90AF9008958150F1CF26
:1021B00090E00196B8010E94912BEBCFBF92CF9295
:1021C000DF92EF92FF920F931F93CF93DF93CDB7E0
:1021D000DEB76E970FB6F894DEBF0FBECDBF182FD7
:1021E00080916A0190916B010E94E11EE12FF0E065
:1021F000E45FF54FE491E817190611F008F07AC092
:102200000E94D51E90936B0180936A018E010F5F2F
:102210001F4FF12CE12C6801D80111961C921197E7
:102220001C9212961C92B12C909100018091690130
:10223000B99E800D11248A300CF089E087FD80E082
:10224000082E000C990BE816F906A1F480915202B1
:10225000881F8827881F90915302592F550F97FB8D
:10226000992790F998014091550260915402852B6D
:102270000E940D0DB394B7E0BB12D6CFEFEFEE1A6C
:10228000FE0A0D5F1F4FFAE0EF16F10429F62AE56A
:1022900032E009E010E05AE0E52EF12CC801B70168
:1022A0000E94912BFC01EE0FFF1FE80FF91FEC0DB0
:1022B000FD1D8181D90111968C93119780818C939A
:1022C000828112968C930F5F1F4F2D5F3F4F03311A
:1022D000110521F70E949F0D9091000180916901E5
:1022E0009130E1F48A3FB4F489EF809369018FEF74
:1022F000809300016E960FB6F894DEBF0FBECDBF7F
:10230000DF91CF911F910F91FF90EF90DF90CF90D1
:10231000BF900895815080936901ECCF81312CF0FA
:1023200080E18093690181E0E3CF8F5FF4CFCF93A9
:10233000DF9380916701909168010E94E11E883EC1
:10234000934028F10E94D51E909368018093670105
:102350008091650190916601019681709927909313
:10236000660180936501CAE5D2E09E014091550265
:102370006091540290E080E00E940D0D239682E06F
:10238000C837D80791F7DF91CF910C949F0DDF915B
:10239000CF91089580917A01882371F18091520242
:1023A00086958F739EE3980F9F73943018F4825034
:1023B0000C949A0F9AE3980F9F73933018F48650F9
:1023C0000C94CF0F97E3980F9F73963018F48950B1
:1023D0000C94FF0F91E3980F9F73963018F48F5071
:1023E0000C9456109BE2980F9F73933018F485510C
:1023F0000C94DE100C9497110895909381018093B2
:1024000080010895E0918001F0918101309721F0E1
:102410000190F081E02D099480E00895E091800121
:10242000F0918101309721F00280F381E02D099431
:102430000895E0918001F0918101309721F00480AE
:10244000F581E02D0994089520917E0130917F015E
:102450002817390771F090937F0180937E01E091F6
:102460008001F0918101309721F00680F781E02D05
:102470000994089520917C0130917D012817390736
:1024800071F090937D0180937C01E0918001F09147
:102490008101309721F00084F185E02D09940895A1
:1024A00008950C9450120E94CC1E0E94A10B0E9411
:1024B0009D1F0E94CE220C94350F5F926F927F92E7
:1024C0008F929F92AF92BF92CF92DF92EF92FF9244
:1024D0000F931F93CF93DF93CDB7DEB72A970FB635
:1024E000F894DEBF0FBECDBF0E940C0C93E8A92E5E
:1024F00091E0B92E10E000E088248394912C502EB6
:10250000802F0E94CE0C7C01F501C190D1905F011B
:10251000C816D90609F45EC08091250281FD0E948B
:10252000D70C90E080E0CE24DF243401082E02C0D6
:10253000660C771C0A94E2F7960126213721232B9B
:1025400009F443C08E835F82E620F72081E0EF2804
:1025500009F480E088870E94D51E8160782F9A87D1
:1025600089874E815F8168858A850E941713000FD5
:10257000111FF801ED57FE4F808191816826792661
:10258000718260820E9420220E9402129091820138
:102590008917B9F10E940212809382012A960FB620
:1025A000F894DEBF0FBECDBFDF91CF911F910F9189
:1025B000FF90EF90DF90CF90BF90AF909F908F9063
:1025C0007F906F905F900C941B0901968F3091055E
:1025D00009F0ABCF0F5F1F4F0530110509F08FCF0A
:1025E0008FEF89838A831B820E94D51E8160782F9A
:1025F0009D838C8349815A816B818D810E94171341
:10260000C1CF2A960FB6F894DEBF0FBECDBFDF91C3
:10261000CF911F910F91FF90EF90DF90CF90BF90DF
:10262000AF909F908F907F906F905F900895CF9321
:10263000DF93CDB7DEB72B970FB6F894DEBF0FBE92
:10264000CDBF4F83588769877A878B871E821D820B
:1026500085E0FE013796DE01119601900D928A9574
:10266000E1F749815A816B817C818D819E812B9616
:102670000FB6F894DEBF0FBECDBFDF91CF910C94A3
:10268000B419882309F4D8C0823871F40E94021268
:1026900081FDD2C089E30E94091D0E94D11D89E3FA
:1026A0000E94461D0C94D11D833859F40E940212D9
:1026B00080FDC2C083E50E94091D0E94D11D83E5F3
:1026C000EFCF843859F40E94021282FDB5C087E42E
:1026D0000E94091D0E94D11D87E4E2CF9CEF980F54
:1026E000913A18F40E94091DDDCF90E2980F9830BE
:1026F00050F4877091E001C0990F8A95EAF7892F0D
:102700000E94881DCFCF9BE5980F933070F4853AD7
:1027100031F0863A39F083E890E00C94241281E895
:1027200090E0FBCF82E890E0F8CF98E5980F9531E4
:1027300008F082C0883A09F440C0893A09F440C0E0
:102740008A3A09F440C08B3A09F440C08C3A09F443
:1027500040C08B3B09F440C08C3B09F440C08D3A2B
:1027600009F440C0803B09F440C08E3A09F440C0EF
:102770008F3A09F440C0813B09F440C0823B09F420
:1027800040C0833B09F440C0843B09F440C0853B12
:1027900009F440C0863B09F440C0873B09F440C0BF
:1027A000883B09F440C0893B09F440C08A3B09F4E6
:1027B00040C090E080E00C943A1282EE90E0FBCFB3
:1027C00089EE90E0F8CF8AEE90E0F5CF85EB90E0CF
:1027D000F2CF86EB90E0EFCF83EB90E0ECCF84EB91
:1027E00090E0E9CF87EB90E0E6CF8CEC90E0E3CF90
:1027F0008DEC90E0E0CF83E891E0DDCF8AE891E0D6
:10280000DACF82E991E0D7CF84E991E0D4CF81E2B9
:1028100092E0D1CF83E292E0CECF84E292E0CBCFC0
:1028200085E292E0C8CF86E292E0C5CF87E292E0EF
:10283000C2CF8AE292E0BFCF0895882309F44BC04B
:10284000823871F40E94021281FF45C089E30E9420
:10285000091D0E94D11D89E30E94461D0C94D11DC3
:10286000833859F40E94021280FF35C083E50E942C
:10287000091D0E94D11D83E5EFCF843859F40E94D1
:10288000021282FF28C087E40E94091D0E94D11D08
:1028900087E4E2CF9CEF980F913AF0F290E2980F24
:1028A000983050F4877091E001C0990F8A95EAF74B
:1028B000892F0E948E1DD2CF9BE5980F933020F474
:1028C00090E080E00C942412885A853120F490E046
:1028D00080E00C943A120895882321F00E94881D0C
:1028E0000C94D11D0895882321F00E948E1D0C9414
:1028F000D11D08958F929F92AF92BF92DF92EF9277
:10290000FF920F931F93CF93DF937C01D62FC72F96
:10291000FC01058102950F70128111110E94A71D03
:102920000E94021DD82E882371F0112321F180E22C
:102930008D0F883000F182E00E94EC1C0E94021D85
:1029400091E0D82ED926EC2FE295EF70F0E0E55516
:10295000FB4E0C94A52BBD14BD140D150D154F1574
:102960006B15EA14EA147615EA140E160E16811683
:102970008A16EA14AA16D12CE6CF0C2F0F70C07F4E
:1029800011F00295007F1123A9F0002359F080E295
:102990008D0F883010F0D11109C0802F0E94881D42
:1029A0000E94D11D8D2F0E94411314C0802F0E94C0
:1029B000991DF6CF8D2F0E941D14002359F080E23F
:1029C0008D0F883010F0D11124C0802F0E948E1DF1
:1029D0000E94D11DDD2009F4C4C10E94DF1C80FDCE
:1029E000C0C1F70112820E94D91C0E94531BC7016B
:1029F0000E94BD160E94D91CDF91CF911F910F91AB
:102A0000FF90EF90DF90BF90AF909F908F900C94CD
:102A1000741B802F0E949F1DDBCFFC2FFF70BF2EE9
:102A2000C07FC03219F0B29480EFB822DD2369F084
:102A3000D13029F1112369F1002359F0F701858183
:102A400080FFB0CF8F70858304C0112361F0011126
:102A500004C08B2D0E946C14BDCF8B2D0130D1F79B
:102A60000E94BB1DB7CF011106C00E94BE1D8B2D59
:102A70000E947314AFCF013009F4ACCFF6CF11230D
:102A800021F0063008F0A6CFE4CF053008F0A2CF41
:102A9000EECF002361F38D2F0E941D149BCF8C2F4E
:102AA00086958695837069F0813009F093CF8D2FDC
:102AB0009C2F9370111102C090E080E00E943A12A6
:102AC00089CF8D2F9C2F9370111102C090E080E070
:102AD0000E9424127FCF8D2F112329F00E942921DB
:102AE0000E94152277CF0E949121FACF8C2F8370FC
:102AF00009F047C011116ECF2D2F22952695277012
:102B0000220F220F6D2F6F70862E912CB12CA12CCD
:102B1000022E04C0880C991CAA1CBB1C0A94D2F774
:102B200060E070E0CB01D4FF0FC06FE070E080E0A8
:102B300090E004C0660F771F881F991F2A95D2F76F
:102B40006095709580959095C695C695C370C23076
:102B500051F080F4682979298A299B29C13071F0C4
:102B60000E94FC1A37CF682979298A299B290E945B
:102B7000181B30CF0E94FC1AC501B4010E94E01A54
:102B800029CF8695112311F08C2F8170882309F4A9
:102B900021CF2D2F229526952770220F220F6D2FE2
:102BA0006F70862E912CB12CA12C022E04C0880CA3
:102BB000991CAA1CBB1C0A94D2F760E070E0CB0100
:102BC000D4FF0FC06FE070E080E090E004C0660FBB
:102BD000771F881F991F2A95D2F760957095809569
:102BE0009095C695C695C370C23051F080F468299F
:102BF00079298A299B29C13071F00E94D61BEACE1F
:102C0000682979298A299B290E94F21BE3CE0E9418
:102C1000D61BC501B4010E94BA1BDCCEE0E2ED0F69
:102C2000E53108F062C0F0E0E85EF94E0C94A52BA7
:102C30002D162D162D162D162D162D162D162D167C
:102C40002D162D162D162D162D162D162D162D166C
:102C50003A1648164F1656166016DF708C2F8F7175
:102C6000112321F00E94531B8D2FF4CE0E94741B60
:102C70008D2FFECE112341F0053008F0ABCE8C2F06
:102C80008F710E94991BA6CE063008F0A3CEF7CF15
:102C90008C2F8F71112339F00E94531B9BCE8C2FE8
:102CA0008F711123C9F30E94741B94CE112329F054
:102CB0008C2F8F710E943E1B8DCE0E94341B8ACEBA
:102CC000112349F0CF718C2F0E94531B63E08C2F8E
:102CD0000E94E31C7FCE81E00E94EC1C023008F4CD
:102CE00079CE82E00E94EC1C75CE112329F00111EF
:102CF00059CE8C2F8F71D0CF0111CDCE8C2F8F71EB
:102D0000D2CF4C2F4F706D2FC7010E942B070E940E
:102D10005D1A60CE11115ECECF70C230A9F040F4C2
:102D2000CC2379F0C13009F055CE0E94F72252CE63
:102D3000C33069F0C43009F04DCE8D2F0E94462378
:102D400049CE0E94DF2246CE0E94102343CE0E942D
:102D5000232340CE4C2F4F706D2FC7010E941D09B9
:102D600039CEDF91CF911F910F91FF90EF90DF90BF
:102D7000BF90AF909F908F9008950F931F93CF9324
:102D8000DF93EC01988189812B813C81232B39F0E1
:102D90008F3F19F481E09F3F19F080E001C081E08E
:102DA00080FD17C0CE010E944407882391F06881FE
:102DB00079818A810E94B51C8C010E940E1C0E94A0
:102DC000D51AB801CE01DF91CF911F910F910C94CC
:102DD0007A14DF91CF911F910F9108950E94A71D42
:102DE0000E94B81D0E947A1D0E94D11D0E94C2221D
:102DF0000E94152290E080E00E94241290E080E082
:102E00000C943A120E94961D0C94EE160E94AB1C74
:102E1000E92FE295EF70E250EE30E0F4F0E0ED5E85
:102E2000F84E0C94A52B211721172A172A172C17B7
:102E30002A172A172A172117211731172A172A1795
:102E40003117803F19F020F4803E20F481E008958E
:102E5000843FE1F380E00895803EC0F3813FD1F7E5
:102E6000F5CF93FB882780F90895CF93DF9300D0A7
:102E700000D01F92CDB7DEB70F900F900F900F903C
:102E80000F90DF91CF910895CF93DF9300D000D0C2
:102E900000D0CDB7DEB726960FB6F894DEBF0FBED2
:102EA000CDBFDF91CF9108951F93CF93DF93C09152
:102EB0008E0116E080918F018C1304C0DF91CF91B9
:102EC0001F910895D0E01C9FF0011D9FF00D11246B
:102ED000E057FE4F408151816281738184819581E9
:102EE0000E9444172196C770E5CF4091C0015091D0
:102EF000C1016091C2017091C3018091C4019091A0
:102F0000C5010C9444171F93CF93DF938091C501A3
:102F1000807FD1F48091C2018823B1F080918E012D
:102F2000D0918F01B091C001C091C1014091C30106
:102F30005091C401A1E0BF3F09F0A0E0BA01609543
:102F4000709516E0D81304C0DF91CF911F910895BA
:102F500021E04115510521F02A2FCF3F09F020E053
:102F600090E020FD38C0189FF001199FF00D11244A
:102F7000E057FE4F21812C132EC020812B132BC034
:102F80002281211128C0238134812417350700F1C3
:102F9000241B350B283C3105F0F42091C5012F701E
:102FA00020612093C50126E0289FF001299FF00DA4
:102FB0001124EB56FE4F80818F708061808380ECFE
:102FC00091E00E94BD16DF91CF911F910C94541790
:102FD000260F371FDFCF01968770B4CFAF92BF9215
:102FE000CF92DF92EF92FF920F931F93CF93DF93D5
:102FF000CDB7DEB761970FB6F894DEBF0FBECDBF79
:103000008C0185E0F801DE011D9601900D928A95F4
:10301000E1F7D8014C9111965C9111971296EC90C2
:103020003091C0016091C1018091C3019091C401B0
:1030300021E0009731F06F3F19F421E03F3F09F0A4
:1030400020E0B22FB170BB2E20FD80C1F801C380FB
:10305000D480A090C201AA2009F427C1C816D906BD
:10306000D0F1D601A81BB90BCD01FF24F394883C05
:10307000910508F0F12C8091C501982F907FFF20D9
:1030800009F4CAC0911187C0FE2C651329C03413FE
:1030900027C0E11025C08F7080618093C5010E9418
:1030A000751780EC91E00E94BD168091C501F80172
:1030B00085838F2D61960FB6F894DEBF0FBECDBF0E
:1030C000DF91CF911F910F91FF90EF90DF90CF9004
:1030D000BF90AF900895809590958C0D9D1DC5CFA4
:1030E00081E0CD2831F05F3F19F481E04F3F09F0D6
:1030F00080E080FD24C081E08E25F82FF170DF2E66
:1031000080FF3FC080918E0120918F0136E08213B5
:1031100018C04D875E878D859E850E94AB1C292F28
:1031200022952F70223008F1243030F59F7009F17C
:10313000D80115969C91907FE1F4FB2CBACF80E0EA
:10314000DCCF90E0389FF001399FF00D1124E0575B
:10315000FE4F6181561306C06081461303C0628131
:103160006E110FC001968770D2CF9F7011F0882327
:1031700021F3805E883008F3C8010E94BD16BD2C83
:10318000DCCFEE2009F495CF8091C501816080935A
:10319000C501F12C8ECF651312C0341310C0E1109D
:1031A0000EC0F8018583C8010E94BD1686E0F801B3
:1031B000A0ECB1E001900D928A95E1F741C04D87F6
:1031C0005E878D859E850E940617882309F4C8C0F6
:1031D000EE2009F4C5C08091C501803270F02091C5
:1031E000C0013091C10138872F831986DB86CA86DA
:1031F0008C87CE0107960E94BD1686E0F801A0ECF0
:10320000B1E001900D928A95E1F70E9483170E9428
:103210007517FF24F3944DCF911115C07C2DD98AD9
:10322000C88A6E2D89890E94351780EC91E00E9432
:10323000BD1686E0E0ECF1E0DF011D928A95E9F72A
:103240000E94751736CF651312C0341310C0E110F9
:103250000EC0F8018583C8010E94BD16E0ECF1E0C4
:1032600086E0DF011D928A95E9F7FA2C22CF4D877F
:103270005E878D859E850E940617882309F470C09D
:10328000EE2009F46DC08091C501803208F4B5CFFD
:103290002091C0013091C1013A8329831B82DD82D4
:1032A000CC828E83CE010196A6CFC816D90638F1FE
:1032B000F601E81BF90BCF01F12C883C910508F0D1
:1032C0003DC0FE2CEE2009F44BC0651326C034131C
:1032D00024C08091C50180FD17C0982F907FA1F078
:1032E000D80115968C931597903F09F45CCF982FD1
:1032F000907F905F8F70892B15968C9354CF80951B
:1033000090958C0D9D1DD8CF86E0F801A0ECB1E022
:1033100001900D928A95E1F7CCCE4D875E878D8521
:103320009E850E940617811168CF8091C50181603A
:103330008093C501C8010E94BD16BBCE7C2DD98AE1
:10334000C88A6E2D89890E94351773CFEE2041F00F
:103350004D875E878D859E850E94061781114DCF12
:10336000C8010E94BD1655CF1F93CF93DF93CDB7F1
:10337000DEB72C970FB6F894DEBF0FBECDBF4F83DC
:10338000588769877A878B879C87CE0107960E942A
:10339000EE17882309F442C09F8188852A853B85E2
:1033A000232B39F08F3F19F481E09F3F19F080E023
:1033B00001C081E080FD08C04F81588569857A850C
:1033C0008B859C850E94441716E080918E01909118
:1033D0008F01891709F467C0819FC00111248057AC
:1033E0009E4F0E94EE17882309F45DC0E0918E0184
:1033F0001E9FF0011124E057FE4F408151816281F0
:103400007381848195810E94441780918E0190E0A0
:1034100001968770992780938E01D7CF86E0FE01B1
:103420003796DE01119601900D928A95E1F79F8102
:1034300088852A853B85232B39F08F3F19F481E05D
:103440009F3F19F080E001C081E080FDBDCF209159
:103450008F0130E0C90101968770992740918E0154
:103460004817190699F096E0929FD001939FB00DEE
:103470001124A057BE4FFE01319601900D929A95EE
:10348000E1F780938F010E9454179ECF0E9402178C
:1034900010928F0110928E0186E0E0ECF1E0DF01E6
:1034A0001D928A95E9F72C960FB6F894DEBF0FBEF1
:1034B000CDBFDF91CF911F910895EF92FF920F93AF
:1034C0001F93CF93DF938C01892B81F0F12CEE2495
:1034D000E394E8012196F8018491843770F48430F4
:1034E00008F05FC08130B1F08230A1F1DF91CF915F
:1034F0001F910F91FF90EF900895853709F44CC00C
:1035000008F43DC09CE7980F903780F78F770E94B2
:103510001D1449C00E5F1F4FFE01849190E2980F69
:10352000983060F48770FE2D01C0FF0F8A95EAF78E
:103530008F2F0E94AA1D0E94D11D02C00E9441131C
:103540008F2D815030F2EFE9FFE03197F1F700C0A5
:103550000000F7CF0E5F1F4FFE01849190E2980F9D
:10356000983050F48770FE2D01C0FF0F8A95EAF75E
:103570008F2F0E94B01DDFCF0E941D14E1CF0E5F80
:103580001F4FFE01C491C150D8F28FE99FE001970F
:10359000F1F700C00000F7CF0E5F1F4FFE01F4905F
:1035A000CFCF0E9441138E01CBCF08956093FC01D1
:1035B0007093FD018093FE019093FF010C94EE1631
:1035C0000F931F930091FC011091FD012091FE01CA
:1035D0003091FF01DC01CB01802B912BA22BB32B6F
:1035E0008093FC019093FD01A093FE01B093FF0135
:1035F0001F910F910C94EE160F931F930091FC01F5
:103600001091FD012091FE013091FF01DC01CB0101
:1036100080239123A223B3238093FC019093FD0187
:10362000A093FE01B093FF011F910F910C94EE1631
:103630000F931F930091FC011091FD012091FE0159
:103640003091FF01DC01CB0180279127A227B3270E
:103650008093FC019093FD01A093FE01B093FF01C4
:103660001F910F910C94EE161092F8011092F9012F
:103670001092FA011092FB010C94EE1641E050E01A
:1036800060E070E004C0440F551F661F771F8A95E5
:10369000D2F74093F8015093F9016093FA017093C7
:1036A000FB010C94EE1641E050E060E070E004C0D5
:1036B000440F551F661F771F8A95D2F78091F80136
:1036C0009091F901A091FA01B091FB01842B952B07
:1036D000A62BB72B8093F8019093F901A093FA01E0
:1036E000B093FB010C94EE1641E050E060E070E016
:1036F00004C0440F551F661F771F8A95D2F7409567
:103700005095609570958091F8019091F901A09184
:10371000FA01B091FB0184239523A623B72380935C
:10372000F8019093F901A093FA01B093FB010C9476
:10373000EE1641E050E060E070E004C0440F551F19
:10374000661F771F8A95D2F78091F8019091F90151
:10375000A091FA01B091FB0184279527A627B727EE
:103760008093F8019093F901A093FA01B093FB01C3
:103770000C94EE160F931F930091F8011091F9012C
:103780002091FA013091FB01DC01CB01802B912BC0
:10379000A22BB32B8093F8019093F901A093FA0127
:1037A000B093FB011F910F910C94EE160F931F9392
:1037B0000091F8011091F9012091FA013091FB017B
:1037C000DC01CB0180239123A223B3238093F80152
:1037D0009093F901A093FA01B093FB011F910F910F
:1037E0000C94EE160F931F930091F8011091F901BC
:1037F0002091FA013091FB01DC01CB018027912758
:10380000A227B3278093F8019093F901A093FA01BE
:10381000B093FB011F910F910C94EE1608952FE0C9
:10382000929F800D1124982F977071E001C0770F3F
:103830009A95EAF786958695869525E0829FC00140
:10384000112450E040E0A62FB0E0FC01E40FF51F8A
:10385000EA53FE4F60819D01042E02C036952795E4
:103860000A94E2F721702195262727232627208313
:103870004F5F5F4F4530510541F708952FE0929F0C
:10388000800D1124982F977086958695869525E052
:10389000829FA001112470E060E080E0FA01E60F51
:1038A000F71FEA53FE4F208130E0092E02C0369503
:1038B00027950A94E2F721703327062E01C0220FC4
:1038C0000A94EAF7822B6F5F7F4F6530710531F7FD
:1038D0000895BF92CF92DF92EF92FF920F931F93C2
:1038E000CF93DF938C01C090F801D090F901E09064
:1038F000FA01F090FB018091FC019091FD01A091F3
:10390000FE01B091FF01C82AD92AEA2AFB2ACFE199
:10391000D0E0BC2ED701C6010C2E04C0B695A795E9
:10392000979587950A94D2F780FD0EC0219788F766
:10393000B12C8B2DDF91CF911F910F91FF90EF90C4
:10394000DF90CF90BF900895B8018C2F0E943A0964
:10395000019761F3EECFCF93DF93EC010E94691CD6
:10396000BE01DF91CF910C943A091F93CF93DF935F
:10397000EB0190918D01992331F0CB01DF91CF9133
:103980001F910C94AB1C882379F0CB010E94691C19
:10399000182F682FCE010E940F1CBE01812FDF91CE
:1039A000CF911F910C943A09CB010E943E1C182F15
:1039B000F4CF809100028595859585950895809135
:1039C00000028770089598E0899F90011124622B6E
:1039D000609300020C94531B909100028095892300
:1039E00080930002282F277061F4282F082E000CE6
:1039F000330B9217130629F08595859585950C94C0
:103A0000741B089590910002977081E009F480E0A2
:103A10000895909113019923E1F090917C0297FF12
:103A200018C0E82FE695E695E695EF3139F120913B
:103A3000010130910201E20FF32FF11D877021E0A7
:103A400030E001C0220F8A95EAF78181822B8183C1
:103A500008952091010130910201F90132969FEF02
:103A600040E05191851751F09F3F19F4511101C069
:103A7000942F4F5F4E31A9F79F3F09F40895290F06
:103A8000311D97FD3A95F9018283089590911301B4
:103A90009923F1F090917C0297FF1AC0E82FE695E8
:103AA000E695E695EF3129F120910101309102016F
:103AB000E20FF32FF11D282F277081E090E001C065
:103AC000880F2A95EAF7809591818923818308954B
:103AD0002091010130910201F9013296205E3F4FA1
:103AE0009191891303C0DF0111971C92E217F3072C
:103AF000B9F7089581E090E0E0910101F0910201B1
:103B0000E80FF91F1082019680329105A9F70895F8
:103B100090912402892B809324020895982F9095E8
:103B20008091240289238093240208951092240214
:103B3000089590912302892B809323020895982F52
:103B400090958091230289238093230208951092F7
:103B50002302089590912202892B809322020895D6
:103B6000982F9095809122028923809322020895B4
:103B7000109222020895809301020895109201028A
:103B800008952091010130910201F9013196205EE2
:103B90003F4F80E0919191118F5FE217F307D1F7CA
:103BA0000895E0910101F091020180912402808347
:103BB000E0910101F0910201808190912302892B13
:103BC0008083E0910101F0910201808190912202B5
:103BD000892B808390910102992361F0E09101018A
:103BE000F09102018081892B80830E94C11D811187
:103BF0001092010280910101909102010C940E1229
:103C00006DEE7EEF90E080E00E94DD2B60E082E0D0
:103C100090E00E94BF2B60E083E090E00E94BF2B09
:103C200060E084E090E00E94BF2B60E085E090E0DF
:103C30000E94BF2B60E086E090E00E94BF2B40E036
:103C400050E0BA0188E090E00C94D12B90E080E045
:103C50000E94B92B21E08D3E9E4F09F020E0822F7B
:103C6000089582E090E00C94AB2B682F82E090E006
:103C70000C94BF2B83E090E00C94AB2B682F83E077
:103C800090E00C94BF2B84E090E00C94AB2B682F59
:103C900084E090E00C94BF2B86E090E00C94AB2B7A
:103CA000682F86E090E00C94BF2B809183028430D3
:103CB00051F11092260288E190E020E40FB6F894CA
:103CC000A895809360000FBE2093600080E00E9462
:103CD000ED0880E00E941B0983B7817F846083BF69
:103CE00083B7816083BF7894889583B78E7F83BFC5
:103CF0000FB6F894A8958091600088618093600069
:103D0000109260000FBE089508950895CF930E9409
:103D1000841E0E940C0C0E94851EC0E08C2F0E9405
:103D2000CE0C892B31F4CF5FC530C1F780E0CF9145
:103D3000089581E0FCCF0E9402170E94CE220E94CB
:103D400002120C941B091F920F920FB60F921124AE
:103D50008F939F93AF93BF9380912602811113C0DD
:103D60008091780290917902A0917A02B0917B02C1
:103D70004196A11DB11D8093780290937902A09382
:103D80007A02B0937B02BF91AF919F918F910F9078
:103D90000FBE0F901F90189582E084BD93E095BDF3
:103DA0009AEF97BD80936E0008952FB7F894809195
:103DB000780290917902A0917A02B0917B022FBF94
:103DC0000895CF92DF92EF92FF920F931F932FB738
:103DD000F894409178025091790260917A02709142
:103DE0007B022FBF6A017B01EE24FF248C0130E0AF
:103DF00020E0C016D106E206F30650F0481B590B2E
:103E0000CA011F910F91FF90EF90DF90CF9008951E
:103E100041505109F3CF1F920F920FB60F92112408
:103E20008F939F93AF93BF93809178029091790283
:103E3000A0917A02B0917B020196A11DB11D8093E1
:103E4000780290937902A0937A02B0937B02BF919B
:103E5000AF919F918F910F900FBE0F901F9018956B
:103E60000E945127F8942FEF87EA91E62150804075
:103E70009040E1F700C0000087E090EBDC01809308
:103E80008C0290938D02A0938E02B0938F0288E1F2
:103E90009CE00FB6F894A895809360000FBE9093B5
:103EA0006000FFCFAF92BF92CF92DF92EF92FF926E
:103EB0000F931F93CF93C0E0CC24C394D12CE82E52
:103EC000F12C8C2F0E94CE0C5C0110E000E0C601AA
:103ED000002E02C0880F991F0A94E2F78A219B21C5
:103EE000892B99F40F5F1F4F0F30110581F7CF5FBA
:103EF000C53039F780E0CF911F910F91FF90EF907F
:103F0000DF90CF90BF90AF900895602F7C2F80E01E
:103F10000E941E09E816F90629F781E0ECCFCF933D
:103F2000C82F8CE20E94521F882321F08C2FCF9142
:103F30000C94521F80E0CF910895CF930E94261ECB
:103F4000811102C00E94001EC5E608C00E940C0C30
:103F50008FE39CE90197F1F700C00000C150B1F771
:103F600089E20E948F1F8111EFC08AE20E948F1F99
:103F700081110E94001E85E00E948F1F81110E9406
:103F8000301F0E94311E8093250287E00E948F1F00
:103F9000882371F08BE10E948F1F882309F4B1C040
:103FA00090912502892F8D7F91FF82608093250259
:103FB000809125020E94351E0E94431E90E090933E
:103FC0007D0280937C0280EE0E948F1F882341F047
:103FD00090917C02892F8E7F90FF816080937C027C
:103FE00089E30E948F1F882341F090917C02892FE2
:103FF0008D7F91FF826080937C0282EE0E948F1FF2
:10400000882341F090917C02892F8B7F92FF8460FE
:1040100080937C0286EE0E948F1F882341F090914E
:104020007C02892F877F93FF886080937C0283EED8
:104030000E948F1F882341F090917C02892F8F7EF0
:1040400094FF806180937C0285E30E948F1F882308
:1040500041F090917C02892F8F7D95FF8062809343
:104060007C0281E30E948F1F882341F090917C02A3
:10407000892F8F7B96FF806480937C0281E10E9470
:104080008F1F882341F090917C02892F97FB87F93D
:10409000805880937C0280917C020E94471E87E2B8
:1040A0000E948F1FC82F8EE10E948F1F8111C26056
:1040B0008FE10E948F1F8111C46080E20E948F1FD8
:1040C0008111C86081E20E948F1F8111C06182E26C
:1040D0000E948F1F8111C06283E20E948F1F811195
:1040E000C06484E20E948F1F882341F1C0688C2F36
:1040F0000E943E1E6C2F70E090E080E0CF910C9407
:10410000D61A8EE00E948F1F882339F090912502E5
:10411000892F8B7F92FF846049CF80E10E948F1F9F
:1041200090912502882329F0892F877F93FF88604B
:104130003DCF892F8E7F90FF816038CFC111D7CFBF
:104140000E943A1E682FD7CFCF91089580912902FF
:1041500080FF12C06091060185E0689FB0011124C4
:10416000759567957595679560387105A8F5611522
:104170007105A1F1862F089581FF09C060910601A4
:1041800085E0689FB001112475956795EDCF82FF9A
:1041900007C06091060185E0689FB0011124E4CF5B
:1041A00020912A022223A9F0909105016091060135
:1041B00085E0689FB00111242917B0F6269FA00161
:1041C000279F500D1124692F70E0CA010E94912B86
:1041D000CBCF65E070E0CECF8FE7089581E0089502
:1041E0008091290280FF0CC06091040170E07595F8
:1041F0006795759567956115710549F1862F089545
:1042000081FF06C06091040170E075956795F3CF5A
:104210006091040182FD0BC090912A029923A1F0C4
:104220006091030180910401961738F0682F70E0C7
:104230006038710500F38FE70895899FC00111244C
:1042400070E00E94912BF4CF61E070E0D7CF81E065
:104250000895803F31F40E94A620819580932D021D
:104260000895813F19F40E94A620F8CF823F31F4CF
:104270000E94A620819580932C020895833F19F413
:104280000E94A620F8CF893F29F40E94F020809355
:104290002E0208958A3F21F40E94F0208195F7CFE5
:1042A0008B3F31F40E94F020819580932F02089576
:1042B0008C3F19F40E94F020F8CF843F31F48091B4
:1042C0002B02816080932B020895853F21F4809119
:1042D0002B028260F7CF863F21F480912B0284600D
:1042E000F1CF873F21F480912B028860EBCF883F8C
:1042F00021F480912B028061E5CF8D3F31F48091D4
:10430000290281608093290208958E3F21F48091D3
:1043100029028260F7CF8F3FB9F78091290284602C
:10432000F1CF803FC1F480912D0287FD10922D02C4
:1043300080912C0281110EC080912D0281110AC042
:1043400080912E02811106C080912F02811102C03E
:1043500010922A020895813F29F480912D021816A7
:104360002CF3E6CF90912C02823F29F497FFE0CF07
:1043700010922C02DDCF833F19F41916CCF3D8CF5D
:10438000893F39F480912E02181694F610922E026D
:10439000CFCF8A3F29F480912E0287FFC9CFF6CF75
:1043A0008B3F39F480912F0287FFC2CF10922F02EA
:1043B000BFCF8C3F29F480912F021816BCF3B8CFE1
:1043C000843F31F480912B028E7F80932B02B0CFFB
:1043D000853F21F480912B028D7FF7CF863F21F41A
:1043E00080912B028B7FF1CF873F21F480912B02AC
:1043F000877FEBCF883F21F480912B028F7EE5CF22
:104400008D3F31F4809129028E7F8093290290CFD5
:104410008E3F21F4809129028D7FF7CF8F3F09F0E5
:1044200087CF809129028B7FF0CF8BE292E00E94B0
:1044300019120E94D51E9093280280932702089596
:104440001F93CF93DF9380912702909128020E94BF
:10445000E11EAC0190912A022091070130E09111F8
:1044600006C0209108018AE0289F9001112442177C
:10447000530780F080912C02C0912D0210912E02E2
:10448000D0912F0281110AC0C11178C0111176C0DC
:10449000D11174C0DF91CF911F9108959F3F19F002
:1044A0009F5F90932A02181624F40E94A6208093FE
:1044B0002C0280912C0287FF05C00E94A6208195C6
:1044C00080932C021C1624F40E94A62080932D02B7
:1044D00080912D0287FF05C00E94A62081958093C0
:1044E0002D0260912C02662331F1C0912D02CC2364
:1044F00011F1062E000C770B880B990B0E94842A71
:1045000023E333E343E35FE30E94E82A0E944C2A5B
:1045100060932C026C2FCC0F770B880B990B0E94A9
:10452000842A23E333E343E35FE30E94E82A0E9403
:104530004C2A60932D02111624F40E94F0208093DF
:104540002E0280912E0287FF05C00E94F0208195E7
:1045500080932E021D1624F40E94F02080932F02D7
:1045600080912F0287FF05C00E94F02081958093E3
:104570002F02DF91CF911F910C9415229F3F09F0DC
:104580008FCFA0CF85E0EBE2F2E0DF011D928A95AC
:10459000E9F710922A021092290208950E94261E1D
:1045A000811102C00E94001E0E944C1E80937E0258
:1045B00080FF03C086950C94ED0880E0FCCF8091CD
:1045C0007E02982F9695933030F49F5F990F8170FB
:1045D000892B80937E0280917E02816080937E028F
:1045E0000E94501E80917E0286950C94ED08809169
:1045F0007E02982F9E7F79F0825080937E028E7F7C
:1046000091E009F490E080917E0290FB80F9809324
:104610007E020E94501E80917E0286950C94ED08C9
:1046200090917E02892F8E7F90FF816080937E0221
:104630000E94501E80917E0280FF03C086950C94DC
:10464000ED0880E0FCCF90917E02892F86958F5FE8
:104650008F7791708430B8F4880F892B80937E0215
:1046600080917E028E7F91E009F490E080917E023D
:1046700090FB80F980937E020E94501E80917E0202
:1046800086950C94ED0890937E02EACF90917E027D
:10469000292F26958227880F9170982B90937E0260
:1046A0009E7F21E009F420E080917E0220FB80F9CA
:1046B00080937E020E94501E80917E0286950C940B
:1046C000ED08809150020895CF93DF9300D01F92A0
:1046D000CDB7DEB79C0180918302843019F593E059
:1046E00099833B832A839093E9008FEF9091E800B0
:1046F000815095FD06C095ED9A95F1F70000811166
:10470000F5CF8091E80085FF0DC050E040E063E008
:1047100070E0CE0101960E94C1258091E8008E775D
:104720008093E8000F900F900F90DF91CF91089544
:10473000CF93DF9300D01F92CDB7DEB720918302D5
:10474000243031F522E02983805891099B838A83A4
:1047500083E08093E9008FEF9091E800815095FD10
:1047600006C095ED9A95F1F700008111F5CF809183
:10477000E80085FF0DC050E040E063E070E0CE014E
:1047800001960E94C1258091E8008E778093E80011
:104790000F900F900F90DF91CF9108959C01809121
:1047A00083028430F9F482E08093E9009FEF8091E6
:1047B000E800915085FD06C085ED8A95F1F700006F
:1047C0009111F5CF8091E80085FF0CC050E040E0EA
:1047D00065E070E0C9010E94C1258091E8008E77F4
:1047E0008093E8000895CF93DF93EC0180918302DA
:1047F0008430F1F4909113019923E9F090917C02B7
:1048000097FF19C08093E9008FEF9091E8008150E5
:1048100095FD06C095E19A95F1F700008111F5CF5D
:104820008091E80050E040E060E270E085FD1AC051
:10483000DF91CF91089581E08093E9008FEF90910F
:10484000E800815095FD06C095ED9A95F1F70000BE
:104850008111F5CF8091E80085FFEACF50E040E07C
:1048600068E070E0CE010E94C1258091E8008E775B
:104870008093E80080E2FE01A0E3B2E001900D9297
:104880008A95E1F7D5CF80918202811109C00E94FB
:1048900051270E94AE278091E20084608093E2005D
:1048A0000895109282020895089508950C949B1E15
:1048B00042E061EC81E00E94CF2642E061EC82E0C0
:1048C0000E94CF2642E061EC83E00E94CF2642E2C4
:1048D00061EC84E00C94CF2680918502833009F44A
:1048E00055C030F4813071F1823009F491C00895DF
:1048F0008A3009F47DC08B3009F463C0893009F037
:1049000044C080918402813209F03FC080918802C6
:1049100090918902009711F00397B9F58091E80012
:10492000877F8093E8008091E80082FF2AC0809111
:10493000F100809350028091E8008B778093E8002B
:104940000C94032780918402813AF9F48091E80065
:10495000877F8093E8008091880290918902892B5B
:1049600061F460E280E392E070E00E9410268091A2
:10497000E8008B778093E800089560E090E080E0A5
:10498000F3CF809183028111CECF0895809184026C
:10499000813AD9F78091880290918902892BA9F7F1
:1049A0008091E800877F8093E8008091E80080FF95
:1049B000FCCF809113018093F1008091E8008E7705
:1049C000BDCF80918402813201F78091880290915D
:1049D0008902892BD1F68091E800877F8093E800D7
:1049E0000E94032780918602809313010C94021782
:1049F00080918402813249F68091E800877F80931C
:104A0000E8000E9403278091870280935102089555
:104A100080918402813A09F0B8CF8091E800877FC5
:104A20008093E8008091E80080FFFCCF80915102E4
:104A3000C2CF84B7877F84BF0FB6F894A8958091C2
:104A40006000886180936000109260000FBE80E873
:104A500080936100109261000E9451120E945127C0
:104A60000E94AE278091E20084608093E2007894F7
:104A70000E94302A0E94531289E091E00E94FD11A9
:104A800080918302853029F00E945D120E94CA1134
:104A9000F7CF0E94551E80918102882389F30E94DE
:104AA000861E882369F30E94AB25EACF292F33277E
:104AB0002330310579F158F421303105F1F02230FD
:104AC000310519F190E080E030E020E01AC0213299
:104AD000310599F122323105A9F7643098F770E079
:104AE000FB01EE0FFF1FE45DFE4F20813181685D09
:104AF0007E4FFB01808190E004C082E190E026EBD4
:104B00003CE0FA013183208308958DE690E029E4AA
:104B10003CE0F7CF99278130910561F028F00297AA
:104B200089F6E9E1FCE002C0E5E4FCE0849190E074
:104B30009F01E7CFEDE2FCE0F9CF643008F0C2CF8F
:104B4000E62FF0E0EE0FFF1FEC5CFE4F208131817D
:104B500089E090E0D6CF80E189BD82E189BD09B4CA
:104B600000FEFDCF8091D8008F7D8093D80080918A
:104B7000E00082608093E0008091E00081FDFCCF46
:104B80000895AF92BF92CF92DF92FF920F931F933F
:104B9000CF93DF936C01EB018A010E942227F82E4C
:104BA000811123C00115110539F0F801808191812F
:104BB000C81BD90BC80ED91EB12CA12C2097A9F067
:104BC0008091E80085FD22C08091E8008E77809377
:104BD000E80001151105A1F0F80180819181A80E6E
:104BE000B91EB182A08285E0F82E8F2DDF91CF9182
:104BF0001F910F91FF90DF90CF90BF90AF900895DD
:104C00000E9422278823D1F2F82EEFCFF60181915E
:104C10006F018093F1002197FFEFAF1ABF0ACECF4B
:104C2000FC0180918A0290918B0286179707A0F071
:104C30006115710529F49091E8009E779093E80042
:104C400090E06115710551F4911108C08091E80060
:104C500082FF35C080E00895BC01F2CF80918302CD
:104C60008823C9F18530C9F18091E80083FD31C006
:104C70008091E80082FDEACF8091E80080FFE1CFDB
:104C80002091F3008091F200322F282F61157105D9
:104C900019F02830310558F091E02830310509F03D
:104CA00090E02091E8002E772093E800CACF819110
:104CB0008093F100615071092F5F3F4FE7CF8091E2
:104CC0008302882341F0853041F08091E80083FF22
:104CD000BDCF81E0089582E0089583E00895FC014E
:104CE00080918A0290918B0286179707A0F0611538
:104CF000710529F48091E8008E778093E80090E0B8
:104D00006115710551F4911108C08091E80082FF8E
:104D100036C080E00895BC01F2CF809183028823E1
:104D2000D1F18530D1F18091E80083FD32C08091CE
:104D3000E80082FDEACF8091E80080FFE1CF20917A
:104D4000F3008091F200322F282F6115710519F0C0
:104D50002830310558F091E02830310509F090E015
:104D60008091E8008E778093E800CACF8491809389
:104D7000F1003196615071092F5F3F4FE6CF80916E
:104D80008302882341F0853041F08091E80083FF61
:104D9000BCCF81E0089582E0089583E00895982FC4
:104DA000973028F08F708093E90081E00895909308
:104DB000E900242F762F50E0981731F07091EC0025
:104DC0002091ED005091F00021FD02C09F5FE8CFDF
:104DD0003091EB003E7F3093EB003091ED003D7F52
:104DE0003093ED003091EB0031603093EB00709325
:104DF000EC002093ED005093F0002091EE0027FD91
:104E0000E5CF80E008958091840287FF13C08091F0
:104E1000E80082FF06C08091E8008B778093E8006D
:104E200004C0809183028111F2CF089580918302A2
:104E30008823D9F38091E80080FFF8CF8091E800C3
:104E40008E77ECCF2091E4003091E50085E69091DB
:104E5000EC0090FF06C09091E80090FF06C080E053
:104E600008959091E80092FDFACF909183029923E2
:104E700091F0953091F09091EB0095FD10C040912C
:104E8000E4005091E5002417350709F381509A0199
:104E9000F1F684E0089582E0089583E0089581E0CA
:104EA00008950E94BF270E94C727E0EEF0E08081AE
:104EB00081608083E8EDF0E080818F77808319BC8A
:104EC000A7EDB0E08C918E7F8C9380818F7E808364
:104ED0001092820208950F931F93CF93DF930E9445
:104EE000BF270E94C727C8EDD0E088818F778883CD
:104EF00088818068888388818F7D888319BC10921F
:104F0000830210927F02109281021092800200EEC2
:104F100010E0F80180818B7F8083888181608883A5
:104F200042E060E080E00E94CF26E1EEF0E0808188
:104F30008E7F8083E2EEF0E08081816080838081DB
:104F400088608083F80180818E7F80838881806182
:104F50008883DF91CF911F910F910895E8EDF0E0E4
:104F600080818F7E8083E7EDF0E0808181608083A7
:104F700084E082BF81E0809382020C946B27E8ED8D
:104F8000F0E080818E7F80831092E200089510927D
:104F9000DA001092E10008951F920F920FB60F925F
:104FA00011242F933F934F935F936F937F938F932E
:104FB0009F93AF93BF93EF93FF938091E10082FFA4
:104FC0000BC08091E20082FF07C08091E1008B7FDF
:104FD0008093E1000E942F2A8091DA0080FF19C09F
:104FE0008091D80080FF15C08091DA008E7F809379
:104FF000DA008091D90080FF94C080E189BD82E110
:1050000089BD09B400FEFDCF81E0809383020E9438
:1050100043248091E10080FF19C08091E20080FF6D
:1050200015C08091E2008E7F8093E2008091E200C3
:1050300080618093E2008091D80080628093D800E4
:1050400019BC85E0809383020E9455248091E10081
:1050500084FF29C08091E20084FF25C080E189BDE2
:1050600082E189BD09B400FEFDCF8091D8008F7D1B
:105070008093D8008091E1008F7E8093E100809141
:10508000E2008F7E8093E2008091E2008160809355
:10509000E20080917F02882309F449C084E0809374
:1050A00083020E9456248091E10083FF29C08091F1
:1050B000E20083FF25C08091E100877F8093E100BB
:1050C00082E08093830210927F028091E1008E7FC4
:1050D0008093E1008091E2008E7F8093E2008091D6
:1050E000E20080618093E20042E060E080E00E94A4
:1050F000CF268091F00088608093F0000E945424B5
:10510000FF91EF91BF91AF919F918F917F916F919F
:105110005F914F913F912F910F900FBE0F901F9075
:10512000189519BC109283020E94512472CF80916D
:10513000E30087FD02C081E0B2CF83E0B0CF1F92D1
:105140000F920FB60F9211242F933F934F935F93BB
:105150006F937F938F939F93AF93BF93CF93EF936F
:10516000FF93C091E900CF708091EC001092E900AC
:105170008091F000877F8093F00078940E94DB2874
:105180001092E9008091F00088608093F000C09355
:10519000E900FF91EF91CF91BF91AF919F918F91D6
:1051A0007F916F915F914F913F912F910F900FBE23
:1051B0000F901F9018951F93CF93DF93CDB7DEB755
:1051C000AA970FB6F894DEBF0FBECDBFE4E8F2E0B9
:1051D0008091F100819322E0EC38F207C9F70E9438
:1051E0006C248091E80083FF42C0809184029091FA
:1051F00085029A3008F03BC0E92FF0E0EE5FF64DF3
:105200000C94A52B0C2930293729302937298B29D3
:10521000AD293729022A0F2A803879F0823839F5EA
:10522000809188028F708093E9008091EB0085FB6C
:10523000882780F91092E90006C080918002909141
:105240008102911182609091E800977F9093E8002D
:105250008093F1001092F1008091E8008E772DC0CC
:10526000282F2D7F21F48823D1F0823059F18091AD
:10527000E80083FF0AC08091E800877F8093E80000
:105280008091EB0080628093EB00AA960FB6F894B1
:10529000DEBF0FBECDBFDF91CF911F9108958091EA
:1052A0008602813021F7933009F080E080938102FB
:1052B0001092E9008091E800877F8093E8000E94C7
:1052C0000327D5CF809186028111F2CF8091880289
:1052D0008F7069F28093E9002091EB0020FFE8CF06
:1052E000933031F48091EB0080628093EB00E0CF4B
:1052F0009091EB0090619093EB0021E030E001C0D1
:10530000220F8A95EAF72093EA001092EA00809132
:10531000EB008860EACF8111AACF109186021F7737
:105320008091E3008078812B8093E3008091E800F6
:10533000877F8093E8000E9403278091E80080FF28
:10534000FCCF8091E30080688093E30083E011113B
:1053500001C082E0809383028ACF8058823008F0B7
:1053600086CF80918602909187028C3D23E0920740
:10537000A1F583E08A838AE289834FB7F894DE013E
:10538000139620E03EE051E2E32FF0E05093570007
:10539000E49120FF03C0E295EF703F5FEF708E2F26
:1053A00090E0EA30C0F0C7968D939D932F5F243133
:1053B00059F74FBF8091E800877F8093E8006AE249
:1053C00070E0CE0101960E9410268091E8008B7754
:1053D0008093E8004CCFC096E7CFAE014F5F5F4FA0
:1053E000609188020E945625BC01892B09F43FCFA9
:1053F0009091E800977F9093E80089819A810E94BC
:105400006F26E3CF803809F032CF8091E800877FA4
:105410008093E80080917F028093F1001DCF81117D
:1054200026CF90918602923008F021CF8091E8003B
:10543000877F8093E80090937F020E9403278091EA
:105440007F02882331F084E0809383020E945824F5
:105450000ECF8091E30087FDF6CF81E0F5CF089570
:10546000CF9380918302882399F0C091E900CF7097
:105470008091EC0080FD0EC080E0C82B1092E90006
:105480008091E80083FD0E94DB28CF70C093E90083
:10549000CF91089580E8F1CF0E94532A6894B1110A
:1054A0000C94E22A08950E94C72A88F09F5798F02A
:1054B000B92F9927B751B0F0E1F0660F771F881F19
:1054C000991F1AF0BA95C9F714C0B13091F00E9433
:1054D000E12AB1E008950C94E12A672F782F8827FC
:1054E000B85F39F0B93FCCF3869577956795B3955A
:1054F000D9F73EF490958095709561957F4F8F4FC9
:105500009F4F0895E89409C097FB3EF490958095CD
:10551000709561957F4F8F4F9F4F9923A9F0F92F79
:1055200096E9BB279395F695879577956795B795F7
:10553000F111F8CFFAF4BB0F11F460FF1BC06F5FDD
:105540007F4F8F4F9F4F16C0882311F096E911C0EF
:10555000772321F09EE8872F762F05C0662371F010
:1055600096E8862F70E060E02AF09A95660F771F24
:10557000881FDAF7880F9695879597F9089557FD54
:105580009058440F551F59F05F3F71F04795880FB1
:1055900097FB991F61F09F3F79F087950895121648
:1055A00013061406551FF2CF4695F1DF08C01616F4
:1055B00017061806991FF1CF8695710561050894A5
:1055C0000895E894BB2766277727CB0197F90895BC
:1055D0000E94FB2A0C946C2B0E945E2B38F00E94D8
:1055E000652B20F0952311F00C94552B0C945B2B1C
:1055F00011240C94E22A0E94BF2A70F3959FC1F3F4
:10560000950F50E0551F629FF001729FBB27F00D70
:10561000B11D639FAA27F00DB11DAA1F649F6627C5
:10562000B00DA11D661F829F2227B00DA11D621F14
:10563000739FB00DA11D621F839FA00D611D221FCE
:10564000749F3327A00D611D231F849F600D211DB2
:10565000822F762F6A2F11249F5750409AF0F1F035
:1056600088234AF0EE0FFF1FBB1F661F771F881F9E
:1056700091505040A9F79E3F510580F00C94552B56
:105680000C94E22A5F3FE4F3983ED4F38695779535
:105690006795B795F795E7959F5FC1F7FE2B880F44
:1056A000911D9695879597F9089597F99F6780E8DA
:1056B00070E060E008959FEF80EC089500240A9464
:1056C0001616170618060906089500240A941216DD
:1056D0001306140605060895092E0394000C11F410
:1056E000882352F0BB0F40F4BF2B11F460FF04C0BD
:1056F0006F5F7F4F8F4F9F4F0895AA1BBB1B51E1D8
:1057000007C0AA1FBB1FA617B70710F0A61BB70B31
:10571000881F991F5A95A9F780959095BC01CD01D6
:10572000089597FB072E16F4009407D077FD09D053
:105730000E947D2B07FC05D03EF4909581959F4FEC
:105740000895709561957F4F0895EE0FFF1F0590A6
:10575000F491E02D0994F999FECF92BD81BDF89A9C
:10576000992780B50895A6E1B0E044E050E00C949C
:10577000E52BA8E1B0E042E050E00C94E52B262FA9
:10578000F999FECF92BD81BDF89A019700B4021637
:1057900039F01FBA20BD0FB6F894FA9AF99A0FBEE5
:1057A00008950396272F0E94C02B0E94BF2B252F00
:1057B0000E94C02B242F0C94C02B0196272F0E94EF
:1057C000C02B0C94BF2BDC01CB01FC01F999FECF5F
:1057D00006C0F2BDE1BDF89A319600B40D92415079
:0A57E0005040B8F70895F894FFCF89
:1057EA00FF02022808140A321E6123F323CE2398EB
:1057FA00236423019091929395366667F1F0C6333C
:10580A003231303534979694404D3639840D370D00
:0C581A00010DC80C5B0C740C8D0CA60C6E
:00000001FF
